:1000000081C000009EC000009CC000009AC000009B
:1000100098C0000096C0000094C0000092C000008C
:1000200090C000008EC000008CC000008AC000009C
:1000300088C0000086C0000084C0000082C00000AC
:1000400080C000007EC00000F3C000007AC0000045
:1000500078C0000076C0000074C0000072C00000CC
:1000600070C000006EC000006CC000004DC10000F8
:1000700068C00000B4C0000064C0000062C000009E
:1000800060C000005EC000005CC000005AC00000FC
:100090007CC2000056C000008AC3000052C00000AD
:1000A00050C000004EC000004CC000004AC000001C
:1000B00048C0000046C0000044C0000042C000002C
:1000C00040C000003EC000003CC000003AC000003C
:1000D00038C0000036C0000034C0000032C000004C
:1000E00030C00000A501BF01C901D701E301ED0146
:1000F00014021D02180422042C043A0446044F047E
:100100009E04AE0411241FBECFEFD1E2DEBFCDBFEF
:1001100000E00CBF12E0A0E0B2E0E8E1FEE000E0A9
:100120000BBF02C007900D92A630B107D9F722E1AC
:10013000A6E0B2E001C01D92A53FB207E1F781D46D
:1001400069C65ECF9C0140E050E060E970ED83E05D
:1001500090E01AD6309389002093880081E090E0E7
:1001600090938B0080938A00E1E8F0E080818860C2
:100170008083808183608083EFE6F0E0808184600B
:1001800080830895ACE7B0E09C918770982B9C9396
:10019000EAE7F0E0808180688083808184608083EA
:1001A0008081886080838081806480838081806298
:1001B0008083EBE7F0E08081856080838C918062B2
:1001C0008C9308959C0140E050E060E970ED83E07D
:1001D00090E0DAD5309389002093880008951F922B
:1001E0000F920FB60F9211240BB60F922F933F93DD
:1001F0004F935F936F937F938F939F93AF93BF932F
:10020000EF93FF93809179001DD0FF91EF91BF9103
:10021000AF919F918F917F916F915F914F913F919E
:100220002F910F900BBE0F900FBE0F901F9018953F
:100230001F920F920FB60F9211240F900FBE0F90C6
:100240001F9018952091080230910902203D3740F7
:1002500021F120910002309101022F3C374031F40E
:100260002FEF3FEF30930102209300022091000214
:10027000309101022F5F3F4F309301022093000223
:10028000F901E451F64F80838091080290910902B0
:1002900001969093090280930802089580910602C6
:1002A000909107029C012F5F3F4F309307022093EC
:1002B0000602FC01E451F64F808120910602309144
:1002C0000702203D374021F41092070210920602E7
:1002D000209108023091090221503109309309021E
:1002E000209308020895789480E04CDF88EE93E034
:1002F00029DF80E190E0FFD480E190E013D5D1D4F4
:100300002FD51092CE0008951F920F920FB60F9224
:1003100011240BB60F922F933F934F935F936F93DC
:100320007F938F939F93AF93BF93EF93FF937894B3
:10033000E0910E02F0910F02E830F10508F088C05C
:100340008827EE58FF4F8F4F3BC581E090E0909398
:100350000F0280930E0220910402309105029091C9
:100360000D028DEF892797E0920F8927295F3F4F74
:10037000832780930D0285E58093C60069C082E0E3
:1003800090E090930F0280930E028AEA8093C60059
:100390005FC083E090E090930F0280930E02809103
:1003A00004029091050207969093C60051C084E024
:1003B00090E090930F0280930E0280910402895F77
:1003C0008093C60045C085E090E090930F02809333
:1003D0000E0282E08093C6003BC060DF80930C0277
:1003E00090910D02982790930D028093C600809102
:1003F0000A0290910B02019690930B0280930A02DD
:10040000209104023091050221503109821793078F
:10041000F9F486E090E090930F0280930E02109220
:100420000B0210920A0214C087E090E090930F0232
:1004300080930E021092C6000BC010920F02109211
:100440000E0280910D028093C6008AD410920D0294
:10045000FF91EF91BF91AF919F918F917F916F919C
:100460005F914F913F912F910F900BBE0F900FBE58
:100470000F901F9018950F931F93CF93DF9300D089
:100480001F921F92CDB7DEB725E529832AEA2A837A
:100490009C01295F3F4F3B8327E0280F2C836D830E
:1004A0002091EB09213019F02230C1F061C0FE012A
:1004B0003196DE01169620E030E061912627EA179A
:1004C000FB07D9F7009709F455C0FA01480F591FE7
:1004D00091912927E417F507D9F74CC0FE01319611
:1004E000DE0116962FEF3FEF61916327762F72950D
:1004F0007F70672770E0322F2227262737278B014E
:10050000102F00271295107F20273127660F771FA5
:1005100062957295707F7627607F7627262737272A
:10052000EA17FB0709F7009729F1DA01480F591F6D
:100530006D916327862F82958F70682770E0322F28
:10054000222726273727FB01FE2FEE27F295F07F83
:100550002E273F27660F771F62957295707F76274B
:10056000607F762726273727A417B50709F702C02B
:1005700020E030E0C9010F900F900F900F900F9086
:10058000DF91CF911F910F9108951F920F920FB697
:100590000F9211240BB60F922F933F934F935F93BB
:1005A0006F937F938F939F93AF93BF93CF93EF936B
:1005B000FF938091E8099091E9098230910509F44F
:1005C00044C028F4009769F0019701F1D3C084304A
:1005D000910509F475C008F459C0059709F49AC04B
:1005E000C9C08091CE00853509F0C4C08091CE008D
:1005F000E091E609F091E709ED53FE4E808381E03A
:1006000090E09093E9098093E809B4C08091CE000E
:100610008A3A81F48091CE00E091E609F091E709F1
:10062000ED53FE4E808382E090E09093E909809341
:10063000E809A0C08FEF9FEF9093E7098093E60948
:100640001092E9091092E80995C08091E60990910D
:10065000E7092091CE00FC01ED53FE4E2083039765
:1006600009F088C0E3ECF1E1828190E0982F8827BF
:100670002381820F911D9093C2118093C11183E059
:1006800090E09093E9098093E80974C02091E6090D
:100690003091E7098091CE00F901ED53FE4E808341
:1006A0008091C1119091C21103972817390709F061
:1006B00061C084E090E09093E9098093E8095AC012
:1006C000C091CE00E091E609F091E709ED53FE4EAE
:1006D000C0838091C1119091C21148EC51E16091A9
:1006E000C7110797C8DE9C2790930202911107C09B
:1006F00085E090E09093E9098093E8093BC08FEF93
:100700009FEF9093E7098093E6091092E909109210
:10071000E80930C0C091CE00E091E609F091E70908
:10072000ED53FE4EC0838091C1119091C21148ECEF
:1007300051E16091C71107979EDE8C2780930202DA
:1007400081110EC081E08093EA098FEF9FEF9093B3
:10075000E7098093E6091092E9091092E8090AC0B6
:100760008FEF9FEF9093E7098093E6091092E909D4
:100770001092E8098091E6099091E709019690931B
:10078000E7098093E609FF91EF91CF91BF91AF9177
:100790009F918F917F916F915F914F913F912F9199
:1007A0000F900BBE0F900FBE0F901F9018951F92C9
:1007B0000F920FB60F9211240BB60F922F933F9307
:1007C0004F935F936F937F938F939F93AF93BF9359
:1007D000CF93DF93EF93FF9378946091030261309E
:1007E00039F485E090E09093E5098093E40913C023
:1007F000623049F480910402909105029093E509DA
:100800008093E40908C0633031F48FEF90E0909357
:10081000E5098093E409E091E209F091E309E83009
:10082000F10508F0ACC08827E658FF4F8F4FC8C2CB
:1008300081E090E09093E3098093E20985E580935D
:10084000CE009DC082E090E09093E3098093E2099E
:100850008AEA8093CE0093C083E090E09093E3090E
:100860008093E2098091E4099091E50907969093BD
:10087000CE0085C084E090E09093E3098093E20984
:100880008091E409895F8093CE0079C085E090E093
:100890009093E3098093E2096093CE0070C06130C9
:1008A00069F48091E0099091E109FC01E454FE4E65
:1008B0002081FC01E05FFD4F208319C0623049F4C4
:1008C000C091E009D091E109E9DCC05FDD4F888388
:1008D0000EC0633061F48091E0099091E109FC0160
:1008E000EB50FE4E2081FC01E05FFD4F2083E09144
:1008F000E009F091E109E05FFD4F80818093CE0037
:100900008091E0099091E10901969093E10980932B
:10091000E0092091E4093091E5098217930779F500
:100920008091E2099091E30901969093E309809305
:10093000E2091092E1091092E00921C087E090E0FD
:100940009093E3098093E20940E152E08091E40949
:100950009091E50990DD9093CE0011C01092E309CB
:100960001092E20940E152E08091E4099091E5099A
:1009700082DD8093CE00F4D182E080930302FF9168
:10098000EF91DF91CF91BF91AF919F918F917F9127
:100990006F915F914F913F912F910F900BBE0F90F0
:1009A0000FBE0F901F9018950F931F93CF93DF9357
:1009B00010920702109206028FEF9FEF90930102B0
:1009C000809300021092090210920802C8E8D3E155
:1009D0001FEF00E02091080230910902232BD1F78C
:1009E0005DDC081708F4082F811708F4182F2197E9
:1009F00089F7802F811BDF91CF911F910F9108956F
:100A0000CF93DF9363E080E062D16FEF81E05FD14D
:100A100061E083E05CD180E69AEED4DBCFEFDFEFDC
:100A20006C2F6E5F82E053D1BFDFFE01EB50FE4EB4
:100A300080832196CE3FD10599F78CD1DF91CF915C
:100A40000895CF93DF93CDB7DEB7E3970FB6F89451
:100A5000DEBF0FBECDBF47DC1BAA312C12E00F2E2C
:100A6000F5E02F2EF02D00E0A12CB12C0F2E412C03
:100A7000FDE25F2E612C712CF02D88248A94982C35
:100A80008091EA09813021F571D1811121C0109244
:100A9000EA098091C1119091C211892B81F0A3ECD8
:100AA000B1E1FE01319695018D9181932F5F3F4F0A
:100AB0008091C1119091C21128173907A8F3E3EC76
:100AC000F1E122E311922A95E9F70D8100930302E7
:100AD000023071F0033009F46EC0013009F06DC0CE
:100AE0002E8044D1882309F471C000E011E0C8CF02
:100AF0008E8190E0982F88272F81820F911D6C01A5
:100B0000990FEE08FF08288530E0322F22279985BB
:100B1000290F311D30930502209304022DD184E06A
:100B2000C816D104E104F10434F46894CC24C2F86A
:100B3000D12CE12CF12CC60145DBD701C601880F71
:100B4000991FAA1FBB1F880F991FAA1FBB1F880FC1
:100B5000991FAA1FBB1FBC01CD016C197D098E090D
:100B60009F09A30192012C193D094E095F090CD17F
:100B7000DA01C9010196A11DB11D409104025091F5
:100B8000050260E070E084179507A607B70724F018
:100B90009093050280930402EFD0B0920702A092D6
:100BA00006029092010280920002B0920902A09285
:100BB000080200E002C024DF00E0D8D0811160CF3D
:100BC000113029F0123009F45BC05ACF00E0E1E0A7
:100BD0002E1609F12E1638F0F2E02F1629F123E037
:100BE000221699F14AC0832D90E001962F81FC01D5
:100BF000E454FE4E2083311007C0253028F0FC015C
:100C0000E454FE4E24E02083FC01E454FE4E608157
:100C1000832D5DD032C0339483E0381201C0312C73
:100C2000ECEBF1E1308229C0FBA9F13021F4109204
:100C3000C0111BAA05C021E02093C01181E08BAB3D
:100C40006091C01183E043D018C0ECEBF1E1108259
:100C50001092BD111092BE111092BF111092C011CE
:100C600060E080E034D060E081E031D060E082E09C
:100C70002ED060E083E02BD0312C6CD012E000CF7E
:100C8000209108023091090280910402909105029E
:100C90002817390708F4F4CE69D08111F1CE5AD063
:100CA000EFCE84B1876084B98CB588658CBD8CB576
:100CB00082608CBD8DB581608DBD289A089528987D
:100CC0008EBD0DB407FEFDCF8EB5289A08951F93F3
:100CD000CF93DF93D82FC62F182F162785E4EFDF89
:100CE0008D2FEDDF8C2FEBDF812FE9DF80E0DF91AF
:100CF000CF911F9108951092C5008093C40082E0A7
:100D00008093C000E1ECF0E0808188618083E2ECB8
:100D1000F0E0808186608083E9ECF0E0808180648F
:100D2000808308951092CD008093CC0082E0809360
:100D3000C800E9ECF0E0808188618083AAECB0E033
:100D40008C9186608C9380818068808380818064B0
:100D500080830895E9ECF0E08081806480830895C9
:100D6000E9ECF0E080818F7B808308958091C90059
:100D700086FB882780F90895E0ECF0E0908195FFEC
:100D8000FDCF8093C6000895052E97FB16F40094BE
:100D90000FD057FD05D01CD007FC02D046F408C088
:100DA00050954095309521953F4F4F4F5F4F089597
:100DB00090958095709561957F4F8F4F9F4F0895C7
:100DC000EE0FFF1F881F8BBF0790F691E02D19943F
:100DD000A1E21A2EAA1BBB1BFD010DC0AA1FBB1F3F
:100DE000EE1FFF1FA217B307E407F50720F0A21BB1
:100DF000B30BE40BF50B661F771F881F991F1A941E
:100E000069F760957095809590959B01AC01BD0147
:080E1000CF010895F894FFCF13
:060E1800FFFF0102F401DE
:00000001FF
