:1000000014C1000042C1000040C100003EC1000018
:100010003CC100003AC1000038C1000036C10000F8
:1000200034C1000032C1000030C100002EC1000008
:100030002CC100002AC1000028C1000026C1000018
:1000400024C1000022C1000020C100001EC1000028
:100050001CC100001AC1000018C100006FC50000DB
:1000600014C1000035C500000AC500000EC1000023
:100070000CC100000AC1000008C1000006C1000058
:1000800004C1000002C1000000C10000FEC0000069
:10009000FCC00000FAC00000F8C00000F6C000007C
:1000A000F4C00000F2C00000F0C00000EEC000008C
:1000B000ECC00000EAC00000E8C00000E6C000009C
:1000C000E4C00000E2C00000E0C00000DEC00000AC
:1000D000DCC00000DAC00000D8C00000D6C00000BC
:1000E000D4C00000BD02C002AF02B302B902F702E1
:1000F000C402C802CE02D202D602DC02E002E4024E
:10010000F702EA02EE02F2020000210024002700BA
:100110002A002D0030003300010100000401070116
:100120000A0100002200250028002B002E003100CB
:10013000340002010000050108010B01000020004D
:100140002300260029002C002F00320000010000AF
:10015000030106010901050505050705080808084A
:10016000020202020A0A080804040404010101014F
:10017000010101010303030303030303040707074A
:100180000C0C0C0C0C0C0C0C0202020206060606EF
:10019000060606060B0B0B0B0B0B0B0B01021020BC
:1001A00020080810204010204080020102010804AD
:1001B0000201010204081020408080402010080441
:1001C000020180040201804020100804020108049A
:1001D00002010102040810204080010204081020DE
:1001E000408000000A0B02090C0D0E0807030401F1
:1001F00000000000000000000000000000000000FF
:1002000000000000000000000000000000001211CB
:1002100010000000000000000000000000000000CE
:100220000000000000000000E80511241FBECFEF11
:10023000D1E2DEBFCDBF00E00CBF23E0A6E7B2E015
:1002400001C01D92A039B207E1F712E0A0E0B2E0D0
:10025000ECEDF3E100E00BBF02C007900D92A63772
:10026000B107D9F711E0C5E1D1E000E006C0219760
:100270000109802FFE010E94E009C431D10780E00E
:100280000807A9F748D50C94EC09BACEEFECF2E0D8
:10029000A089B18982E08C93A485B5851C92A6853E
:1002A000B7858FEC8C93108EA489B58986E08C93EA
:1002B000A289B3898C9180618C93A289B3898C9136
:1002C00088608C93A289B3898C9180688C93028812
:1002D000F389E02D80818F7D80830895CF92DF9216
:1002E000EF92FF920F931F93CF93DF936C017A01EC
:1002F0008B01C0E0D0E0CE15DF0589F0D8016D910B
:100300008D01D601ED91FC910190F081E02DC601A7
:100310001995892B11F47E0102C02196ECCFC701FB
:10032000DF91CF911F910F91FF90EF90DF90CF90D1
:100330000895089580E090E00895FC01538D448D68
:10034000252F30E0842F90E0821B930B541710F080
:10035000CF96089501970895FC01918D828D98178D
:1003600061F0828DDF01A80FB11D5D968C91928D99
:100370009F5F9F73928F90E008958FEF9FEF089596
:10038000FC01918D828D981731F0828DE80FF11D5F
:10039000858D90E008958FEF9FEF0895FC01918D7A
:1003A000228D892F90E0805C9F4F821B91098F7373
:1003B000992708958FEC92E0F1DF21E0892B09F471
:1003C00020E0822F0895FC01848DDF01A80FB11D6C
:1003D000A35ABF4F2C91848D90E001968F7399277B
:1003E000848FA689B7892C93A089B1898C91806468
:1003F0008C93938D848D981306C00288F389E02D29
:1004000080818F7D80830895EF92FF920F931F93D9
:10041000CF93DF93EC0181E0888F9B8D8C8D9813B7
:1004200005C0E889F989808185FD23C0F62E0B8DF2
:1004300010E00F5F1F4F0F731127E02E8C8DE81215
:100440000BC00FB607FCFACFE889F989808185FFD8
:10045000F5CFCE01B8DFF2CF8B8DFE01E80FF11D95
:10046000E35AFF4FF0820B8FEA89FB89808180621B
:1004700007C0EE89FF896083E889F98980818064FB
:10048000808381E090E0DF91CF911F910F91FF90E9
:10049000EF900895CF93DF93EC01888D8823C1F00E
:1004A000EA89FB89808185FD05C0A889B9898C917D
:1004B00086FD0EC00FB607FCF5CF808185FFF2CF19
:1004C000A889B9898C9185FFEDCFCE017CDFE8CF7B
:1004D000DF91CF91089580E090E0892B19F06ADFD9
:1004E000811125C080E090E0892B41F080E090E010
:1004F000892B21F00E94000081111CC080E090E057
:10050000892B41F080E090E0892B21F00E940000CF
:10051000811113C080E090E0892BA1F080E090E091
:10052000892B81F00E94000081110AC008950E9469
:100530000000D8CF0E940000E1CF0E940000EACF67
:100540000C940000089590E0FC013197E231F10530
:1005500008F04DC08827EE58FF4F8F4F31C780916C
:1005600080008F7703C0809180008F7D8093800012
:10057000089580918000877FF9CF84B58F7702C07E
:1005800084B58F7D84BD08958091B0008F7703C0BE
:100590008091B0008F7D8093B0000895809190008D
:1005A0008F7707C0809190008F7D03C0809190006D
:1005B000877F8093900008958091A0008F7707C077
:1005C0008091A0008F7D03C08091A000877F8093E1
:1005D000A0000895809120018F7707C080912001AD
:1005E0008F7D03C080912001877F80932001089533
:1005F0001F93CF93DF93282F30E0F901EE51FE4F88
:100600008491F901E456FE4FD491F901EA5AFE4F64
:10061000C491CC23C1F0162F811195DFEC2FF0E0AF
:10062000EE0FFF1FEE5DFE4FA591B4918FB7F894CA
:10063000111105C09C91ED2FE095E92302C0EC91CA
:10064000ED2BEC938FBFDF91CF911F910895CF9346
:10065000DF9390E0FC01E456FE4F2491FC01EA5A3E
:10066000FE4F8491882361F190E0880F991FFC016F
:10067000E85FFE4FC591D491FC01EE5DFE4FA59160
:10068000B491611109C09FB7F894888120958223A5
:100690008883EC912E230BC0623061F49FB7F894ED
:1006A0003881822F809583238883EC912E2B2C9385
:1006B0009FBF06C08FB7F894E8812E2B28838FBF89
:1006C000DF91CF9108953FB7F89480917B0290918C
:1006D0007C02A0917D02B0917E0226B5A89B05C048
:1006E0002F3F19F00196A11DB11D3FBFBA2FA92FB1
:1006F000982F8827820F911DA11DB11DBC01CD012E
:1007000042E0660F771F881F991F4A95D1F7089519
:100710002FB7F894609177027091780280917902F6
:1007200090917A022FBF08958F929F92AF92BF92BD
:10073000CF92DF92EF92FF926B017C01E9DF4B01D8
:100740005C01C60ED71EE81EF91EE2DF68157905AA
:100750008A059B0528F0C616D706E806F906A8F70D
:10076000FF90EF90DF90CF90BF90AF909F908F90D1
:100770000895DACF0F931F93811121C0C9DF009133
:10078000890210918A0220918B0230918C02DC0147
:10079000CB01801B910BA20BB30B82339105A105FA
:1007A000B10568F442E350E060E070E08A019B012B
:1007B000081B190B2A0B3B0BC901B801B5DFA8DFD9
:1007C0006093890270938A0280938B0290938C02CB
:1007D00081E01F910F910895CF93DF93C7E8D2E096
:1007E00084EF91E0A0E0B0E08E879F87A88BB98B63
:1007F0001A8A1B8A1C8A1D8A8E819F81A885B985C9
:100800008A879B87AC87BD8783DF6E837F838887DA
:100810009987DF91CF910895DBD56115710579F046
:10082000FB0101900020E9F73197AF01461B570B00
:10083000DC01ED91FC910280F381E02D199480E0C0
:1008400090E00895CF93DF93C091C902D091CA027E
:100850006AE372E0CE01E1DF6EE472E0CE01DF9187
:10086000CF91DBCF4F925F926F927F92EF92FF9288
:100870000F931F93CF93DF93CDB7DEB7A1970FB63A
:10088000F894DEBF0FBECDBF7C01FA01CB0119A2E7
:10089000223008F42AE08E010F5D1F4F422E512CAA
:1008A000612C712CBF01A301920168D5F901CA0125
:1008B000015011096A3014F4605D01C0695CD8010F
:1008C0006C93232B242B252B69F7B801C701A5DFD7
:1008D000A1960FB6F894DEBF0FBECDBFDF91CF91CA
:1008E0001F910F91FF90EF907F906F905F904F90CE
:1008F000089593CFCF9390919D02992309F460C0FE
:10090000C82F8091C9029091CA02DC01ED91FC913F
:100910000084F185E02D1995811117C085E651C03D
:100920008091C9029091CA02DC01ED91FC91028490
:10093000F385E02D1995883609F442C0A0F081377F
:1009400009F43EC0863709F43CC08091C9029091F9
:10095000CA02DC01ED91FC910084F185E02D19952E
:100960008111DECFDBCF883549F1833671F7D0DED8
:100970006093890270938A0280938B0290938C0219
:1009800061E472E08091C9029091CA02B2DF4C2FFB
:1009900050E060E070E02AE08091C9029091CA02C4
:1009A00061DF68E472E08091C9029091CA02A1DF20
:1009B00062E370E080E090E0DCDE02C010929D0215
:1009C00083E6CF910895BF92CF92DF92EF92FF928C
:1009D0000F931F93CF93DF93B82E9ADE6B017C01A8
:1009E00007E812E0C9ECD2E061E572E08881998104
:1009F00080DF4B2D50E060E070E02AE08881998133
:100A000031DF68E572E08881998173DF2AE0B70100
:100A1000A6018881998126DF6AE572E08881998143
:100A200068DFF80186819781A085B185B701A601AD
:100A3000481B590B6A0B7B0B2AE08881998112DFD6
:100A40006AE572E08881998154DFF8014681578117
:100A50006085718582859385A485B585481B590B72
:100A60006A0B7B0B2AE088819981DF91CF911F91DE
:100A70000F91FF90EF90DF90CF90BF90F3CE1F9239
:100A80000F920FB60F9211240BB60F922F933F9334
:100A90004F935F936F937F938F939F93AF93BF9386
:100AA000EF93FF938FEC92E08EDCFF91EF91BF917B
:100AB000AF919F918F917F916F915F914F913F91F6
:100AC0002F910F900BBE0F900FBE0F901F90189597
:100AD0001F920F920FB60F9211240BB60F922F9305
:100AE0008F939F93EF93FF93E091DF02F091E002E9
:100AF0008081E091E502F091E60282FD12C09081D2
:100B00008091E8028F5F8F732091E902821751F084
:100B1000E091E802F0E0E153FD4F958F8093E80209
:100B200001C08081FF91EF919F918F912F910F9044
:100B30000BBE0F900FBE0F901F9018951F920F9233
:100B40000FB60F9211242F933F938F939F93AF93E0
:100B5000BF938091770290917802A0917902B09131
:100B60007A023091760223E0230F2D3720F401968C
:100B7000A11DB11D05C026E8230F0296A11DB11DC0
:100B8000209376028093770290937802A093790263
:100B9000B0937A0280917B0290917C02A0917D02B9
:100BA000B0917E020196A11DB11D80937B029093AE
:100BB0007C02A0937D02B0937E02BF91AF919F9182
:100BC0008F913F912F910F900FBE0F901F9018950E
:100BD000CF93DF931092D2021092D10288EE93E06D
:100BE000A0E0B0E08093D3029093D402A093D5020A
:100BF000B093D60284E292E09093D0028093CF0229
:100C000085EC90E09093DC028093DB0284EC90E032
:100C10009093DE028093DD0280EC90E09093E002FE
:100C20008093DF0281EC90E09093E2028093E102F6
:100C300082EC90E09093E4028093E30286EC90E0F3
:100C40009093E6028093E5021092E8021092E90286
:100C50001092EA021092EB0210928D0210928E0214
:100C600010928F02109290021092910210929202B2
:100C70001092930210929402109295021092960292
:100C800010929702109298021092990210929A0272
:100C900010929B0210929C0280E2E0E0F2E0A0E75A
:100CA000B3E001900D928A95E1F786E392E090938C
:100CB0006D0380936C0382E392E090936F038093C3
:100CC0006E03C0E0D0E0E0916C03F0916D03EC0F97
:100CD000FD1F60E08081BBDCE0916C03F0916D034F
:100CE000EC0FFD1F61E0808183DC61E087E1AFDC18
:100CF00061E087E17DDC2196C430D10521F76CE508
:100D000072E08FEC92E089DD6EE472E08FEC92E0AD
:100D1000DF91CF9182CD789484B5826084BD84B513
:100D2000816084BD85B5826085BD85B5816085BDE6
:100D300080916E00816080936E001092810080919E
:100D40008100826080938100809181008160809326
:100D50008100809180008160809380008091B1004B
:100D600084608093B1008091B00081608093B00076
:100D700080919100826080939100809191008160C8
:100D80008093910080919000816080939000809189
:100D9000A10082608093A1008091A1008160809376
:100DA000A1008091A00081608093A000809121012A
:100DB00082608093210180912101816080932101D3
:100DC0008091200181608093200180917A0084606D
:100DD00080937A0080917A00826080937A0080917B
:100DE0007A00816080937A0080917A008068809395
:100DF0007A001092C1001092CB021092CC02109295
:100E0000CD021092CE021092890210928A021092A4
:100E10008B0210928C0268EB7BE080E090E0A9DC12
:100E20008FEC92E09093CA028093C9022FDA70DCB3
:100E30006093890270938A0280938B0290938C0254
:100E400062E672E08091C9029091CA0252DD6AE0C6
:100E500070E080E090E08DDC81E080939D0216DA06
:100E600061E08DE0F4DB25E6E22E52DC672B682B97
:100E7000692B39F44DDC623071058105910508F468
:100E800066C046DC6093830270938402809385027F
:100E90009093860200917F0210918002209181023E
:100EA00030918202601771078207930740F46093C4
:100EB0007F0270938002809381029093820200915E
:100EC0007F021091800220918102309182025B01A9
:100ED0006C01A01AB10AC20AD30A960185010A3F21
:100EE00011052105310598F160937F02709380020E
:100EF00080938102909382026FDC0ADC6093890206
:100F000070938A0280938B0290938C0281E05BDD68
:100F100064E772E08091C9029091CA02EADCF8DBD2
:100F2000AB01BC012AE08091C9029091CA029ADC0F
:100F300089DC65E070E080E090E01BDCE9DB609339
:100F40008D0270938E0280938F0290939002C3E083
:100F5000D0E042DC65E070E080E090E00ADC6AE02E
:100F600070E080E090E005DCE0929E0280919E02BD
:100F7000833609F43BC0853679F5809199029091CA
:100F80009A02A0919B02B0919C020196A11DB11DF5
:100F90008093990290939A02A0939B02B0939C0233
:100FA000409195025091960260919702709198023B
:100FB000452B462B472B21F4892B8A2B8B2B61F455
:100FC00080E0D8DB882319F082E0FDDC3BDC64EFB5
:100FD00071E080E090E0A8DB6AE070E080E090E003
:100FE000C8DB82E087DC80939E02C0CF91DB6093F8
:100FF0008D0270938E0280938F0290939002E09105
:101000006E03F0916F03EC0FFD1F60E08081F0DA5A
:10101000E3DB65E070E080E090E0ABDB6AE070E08D
:1010200080E090E0A6DBE0929E0280919E028336F3
:1010300009F43BC0853679F58091990290919A0226
:10104000A0919B02B0919C020196A11DB11D8093BD
:10105000990290939A02A0939B02B0939C024091B4
:101060009502509196026091970270919802452BDB
:10107000462B472B21F4892B8A2B8B2B61F480E0A4
:1010800079DB882319F083E09EDCDCDB64EF71E020
:1010900080E090E049DB6AE070E080E090E069DBAE
:1010A00083E028DC80939E02C0CF32DB60938D0208
:1010B00070938E0280938F029093900200E010E074
:1010C0008BDB65E070E080E090E053DB6AE070E08D
:1010D00080E090E04EDBE0929E0280919E0283369B
:1010E00009F43BC0853679F58091990290919A0276
:1010F000A0919B02B0919C020196A11DB11D80930D
:10110000990290939A02A0939B02B0939C02409103
:101110009502509196026091970270919802452B2A
:10112000462B472B21F4892B8A2B8B2B61F480E0F3
:1011300021DB882319F084E046DC84DB64EF71E076
:1011400080E090E0F1DA6AE070E080E090E011DBAE
:1011500084E0D0DB80939E02C0CFDADA60938D0208
:1011600070938E0280938F0290939002E0916C03B3
:10117000F0916D03E00FF11F208130E0F901EE5195
:10118000FE4F8491F901E456FE4FB490F901EA5AFA
:10119000FE4FF490FF2009F475C08111D4D9EF2DD2
:1011A000F0E0EE0FFF1FE45CFE4FA591B491EC91CF
:1011B000EB2109F467C00F5F1F4F0430110509F0E0
:1011C0007FCFE0916E03F0916F03EC0FFD1F61E0A4
:1011D00080810EDA01DB65E070E080E090E0C9DA42
:1011E0006AE070E080E090E0C4DAE0929E028091D4
:1011F0009E02833609F43BC0853679F580919902C9
:1012000090919A02A0919B02B0919C020196A11D1F
:10121000B11D8093990290939A02A0939B02B09380
:101220009C024091950250919602609197027091B4
:101230009802452B462B472B21F4892B8A2B8B2B8D
:1012400061F480E097DA882319F089E0BCDBFADAF0
:1012500064EF71E080E090E067DA6AE070E080E0DF
:1012600090E087DA89E046DB80939E02C0CF50DAB7
:1012700060938D0270938E0280938F029093900200
:10128000219767CEA9DA65E070E080E090E071DA3E
:101290006AE070E080E090E06CDAE0929E0280917B
:1012A0009E02833609F43BC0853679F58091990218
:1012B00090919A02A0919B02B0919C020196A11D6F
:1012C000B11D8093990290939A02A0939B02B093D0
:1012D0009C02409195025091960260919702709104
:1012E0009802452B462B472B21F4892B8A2B8B2BDD
:1012F00061F480E03FDA882319F086E064DBA2DA4B
:1013000064EF71E080E090E00FDA6AE070E080E086
:1013100090E02FDA86E0EEDA80939E02C0CFF8D913
:1013200060938D0270938E0280938F02909390024F
:10133000CAD92B013C0182E3882E912CA12CB12C1F
:10134000C2D9DC01CB0184199509A609B709883EE9
:101350009340A105B10558F021E0821A9108A10837
:10136000B10888EE480E83E0581E611C711C811480
:101370009104A104B10421F7AED877CDA1E21A2ED1
:10138000AA1BBB1BFD010DC0AA1FBB1FEE1FFF1F29
:10139000A217B307E407F50720F0A21BB30BE40B79
:1013A000F50B661F771F881F991F1A9469F76095C0
:1013B0007095809590959B01AC01BD01CF0108957A
:1013C000EE0FFF1F881F8BBF0790F691E02D199439
:0C13D00081E090E0F89400C0F894FFCF9A
:1013DC0001000200030004000500060007000800DD
:1013EC0009000A000B000C000D000E000F0010008D
:1013FC000000000004026E019D014A02CE01AC0106
:10140C00C00117191B1D1F2123255F564D44504544
:10141C0000564D4450435F005F564D4450430D0AF7
:10142C0000564D4450455F003A323A0048656C6CAA
:10143C006F00564D4450565F317C315F564D4450D1
:06144C00560D0A007C00B1
:00000001FF
